:1000000012C022C021C020C01FC01EC01DC01CC005
:100010001BC01AC019C018C017C016C015C014C024
:1000200013C012C011C011241FBECFEDCDBF10E010
:10003000A0E6B0E0E4EFF0E002C005900D92A0373A
:10004000B107D9F702D054C0DBCF1ABA11BA8FEF7B
:1000500087BB80E481BB50B389B3282F2270220F65
:10006000682F617070E0FB0183E0EE0FFF1F8A953F
:10007000E1F72E2B452F4370322F342B952F9470A0
:10008000990F990F292F232B852F8870880F880FA0
:10009000982F922BE52FE071EE0FEE0F8E2F892B0C
:1000A000E52FE072EE0FEE0FE82BAE2FAF70B0E051
:1000B000A05ABF4F8C91880F809588BBC098969AA4
:1000C00081EE94E00197F1F700C00000E295EF7037
:1000D000F0E0E05AFF4F8081880F809588BBC09A7E
:1000E000969881EE94E00197F1F700C00000B3CF3D
:0400F000F894FFCFB2
:1000F4005F063B2F666D7D077F6F777C593E797174
:00000001FF
